{
  "contractName": "METFaucet",
  "abi": [
    {
      "constant": true,
      "inputs": [],
      "name": "METoken",
      "outputs": [
        {
          "name": "",
          "type": "address"
        }
      ],
      "payable": false,
      "stateMutability": "view",
      "type": "function"
    },
    {
      "constant": true,
      "inputs": [],
      "name": "METOwner",
      "outputs": [
        {
          "name": "",
          "type": "address"
        }
      ],
      "payable": false,
      "stateMutability": "view",
      "type": "function"
    },
    {
      "inputs": [
        {
          "name": "_METoken",
          "type": "address"
        },
        {
          "name": "_METOwner",
          "type": "address"
        }
      ],
      "payable": false,
      "stateMutability": "nonpayable",
      "type": "constructor"
    },
    {
      "payable": true,
      "stateMutability": "payable",
      "type": "fallback"
    },
    {
      "constant": false,
      "inputs": [
        {
          "name": "withdraw_amount",
          "type": "uint256"
        }
      ],
      "name": "withdraw",
      "outputs": [],
      "payable": false,
      "stateMutability": "nonpayable",
      "type": "function"
    }
  ],
  "bytecode": "0x608060405234801561001057600080fd5b506040516040806103e78339810180604052810190808051906020019092919080519060200190929190505050816000806101000a81548173ffffffffffffffffffffffffffffffffffffffff021916908373ffffffffffffffffffffffffffffffffffffffff16021790555080600160006101000a81548173ffffffffffffffffffffffffffffffffffffffff021916908373ffffffffffffffffffffffffffffffffffffffff1602179055505050610318806100cf6000396000f300608060405260043610610057576000357c0100000000000000000000000000000000000000000000000000000000900463ffffffff1680632e1a7d4d1461005c578063ad577be314610089578063f27f0fac146100e0575b600080fd5b34801561006857600080fd5b5061008760048036038101908080359060200190929190505050610137565b005b34801561009557600080fd5b5061009e6102a1565b604051808273ffffffffffffffffffffffffffffffffffffffff1673ffffffffffffffffffffffffffffffffffffffff16815260200191505060405180910390f35b3480156100ec57600080fd5b506100f56102c6565b604051808273ffffffffffffffffffffffffffffffffffffffff1673ffffffffffffffffffffffffffffffffffffffff16815260200191505060405180910390f35b6103e8811115151561014857600080fd5b6000809054906101000a900473ffffffffffffffffffffffffffffffffffffffff1673ffffffffffffffffffffffffffffffffffffffff166323b872dd600160009054906101000a900473ffffffffffffffffffffffffffffffffffffffff1633846040518463ffffffff167c0100000000000000000000000000000000000000000000000000000000028152600401808473ffffffffffffffffffffffffffffffffffffffff1673ffffffffffffffffffffffffffffffffffffffff1681526020018373ffffffffffffffffffffffffffffffffffffffff1673ffffffffffffffffffffffffffffffffffffffff1681526020018281526020019350505050602060405180830381600087803b15801561026257600080fd5b505af1158015610276573d6000803e3d6000fd5b505050506040513d602081101561028c57600080fd5b81019080805190602001909291905050505050565b6000809054906101000a900473ffffffffffffffffffffffffffffffffffffffff1681565b600160009054906101000a900473ffffffffffffffffffffffffffffffffffffffff16815600a165627a7a72305820f8b509e3eaf10d9e5f6471bc6c9d7ed0081b168535b76646e3f22893c06349f10029",
  "source": "// Version of Solidity compiler this program was written for\npragma solidity ^0.4.19;\n\nimport 'openzeppelin-solidity/contracts/token/ERC20/StandardToken.sol';\n\n\n// A faucet for ERC20 token MET\ncontract METFaucet {\n\n\tStandardToken public METoken;\n\taddress public METOwner;\n\n\t// METFaucet constructor, provide the address of METoken contract and\n\t// the owner address we will be approved to transferFrom\n\tconstructor(address _METoken, address _METOwner) public {\n\n\t\t// Initialize the METoken from the address provided\n\t\tMEToken = StandardToken(_METoken);\n\t\tMETOwner = _METOwner;\n\t}\n\n\tfunction withdraw(uint withdraw_amount) public {\n\n    \t// Limit withdrawal amount to 10 MET\n    \trequire(withdraw_amount <= 1000);\n\n\t\t// Use the transferFrom function of METoken\n\t\tMEToken.transferFrom(METOwner, msg.sender, withdraw_amount);\n    }\n\n\t// REJECT any incoming ether\n\tfunction () external payable { revert(); }\n\n}",
  "sourcePath": "/Users/jinrirencai/Desktop/ico/METoken/project/contracts/METFaucet.sol",
  "compiler": {
    "name": "solc",
    "version": "0.4.24+commit.e67f0147.Emscripten.clang"
  },
  "schemaVersion": "3.4.11",
  "updatedAt": "2023-02-23T10:20:52.973Z",
  "networkType": "ethereum",
  "devdoc": {
    "methods": {}
  },
  "userdoc": {
    "methods": {}
  }
}